{
  "contractName": "ERC1155NonFungibleMintable",
  "abi": [
    {
      "constant": true,
      "inputs": [
        {
          "name": "_id",
          "type": "uint256"
        }
      ],
      "name": "name",
      "outputs": [
        {
          "name": "",
          "type": "string"
        }
      ],
      "payable": false,
      "stateMutability": "view",
      "type": "function"
    },
    {
      "constant": false,
      "inputs": [
        {
          "name": "_to",
          "type": "address"
        },
        {
          "name": "_id",
          "type": "uint256"
        },
        {
          "name": "_value",
          "type": "uint256"
        }
      ],
      "name": "transfer",
      "outputs": [],
      "payable": false,
      "stateMutability": "nonpayable",
      "type": "function"
    },
    {
      "constant": false,
      "inputs": [
        {
          "name": "_to",
          "type": "address"
        },
        {
          "name": "_ids",
          "type": "uint256[]"
        },
        {
          "name": "_values",
          "type": "uint256[]"
        }
      ],
      "name": "transfer",
      "outputs": [],
      "payable": false,
      "stateMutability": "nonpayable",
      "type": "function"
    },
    {
      "constant": true,
      "inputs": [
        {
          "name": "_id",
          "type": "uint256"
        },
        {
          "name": "_owner",
          "type": "address"
        },
        {
          "name": "_spender",
          "type": "address"
        }
      ],
      "name": "allowance",
      "outputs": [
        {
          "name": "",
          "type": "uint256"
        }
      ],
      "payable": false,
      "stateMutability": "view",
      "type": "function"
    },
    {
      "constant": true,
      "inputs": [
        {
          "name": "_id",
          "type": "uint256"
        }
      ],
      "name": "uri",
      "outputs": [
        {
          "name": "",
          "type": "string"
        }
      ],
      "payable": false,
      "stateMutability": "view",
      "type": "function"
    },
    {
      "constant": false,
      "inputs": [
        {
          "name": "_from",
          "type": "address"
        },
        {
          "name": "_to",
          "type": "address"
        },
        {
          "name": "_ids",
          "type": "uint256[]"
        },
        {
          "name": "_values",
          "type": "uint256[]"
        }
      ],
      "name": "batchTransferFrom",
      "outputs": [],
      "payable": false,
      "stateMutability": "nonpayable",
      "type": "function"
    },
    {
      "constant": false,
      "inputs": [
        {
          "name": "_from",
          "type": "address"
        },
        {
          "name": "_to",
          "type": "address"
        },
        {
          "name": "_ids",
          "type": "uint256[]"
        },
        {
          "name": "_values",
          "type": "uint256[]"
        },
        {
          "name": "_data",
          "type": "bytes"
        }
      ],
      "name": "safeBatchTransferFrom",
      "outputs": [],
      "payable": false,
      "stateMutability": "nonpayable",
      "type": "function"
    },
    {
      "constant": true,
      "inputs": [
        {
          "name": "_id",
          "type": "uint256"
        },
        {
          "name": "_owner",
          "type": "address"
        }
      ],
      "name": "balanceOf",
      "outputs": [
        {
          "name": "",
          "type": "uint256"
        }
      ],
      "payable": false,
      "stateMutability": "view",
      "type": "function"
    },
    {
      "constant": false,
      "inputs": [
        {
          "name": "_to",
          "type": "address"
        },
        {
          "name": "_ids",
          "type": "uint256[]"
        },
        {
          "name": "_values",
          "type": "uint256[]"
        },
        {
          "name": "_data",
          "type": "bytes"
        }
      ],
      "name": "safeBatchTransfer",
      "outputs": [],
      "payable": false,
      "stateMutability": "nonpayable",
      "type": "function"
    },
    {
      "constant": true,
      "inputs": [
        {
          "name": "_id",
          "type": "uint256"
        }
      ],
      "name": "decimals",
      "outputs": [
        {
          "name": "",
          "type": "uint8"
        }
      ],
      "payable": false,
      "stateMutability": "view",
      "type": "function"
    },
    {
      "constant": true,
      "inputs": [
        {
          "name": "_id",
          "type": "uint256"
        }
      ],
      "name": "symbol",
      "outputs": [
        {
          "name": "",
          "type": "string"
        }
      ],
      "payable": false,
      "stateMutability": "view",
      "type": "function"
    },
    {
      "constant": false,
      "inputs": [
        {
          "name": "_spender",
          "type": "address"
        },
        {
          "name": "_id",
          "type": "uint256"
        },
        {
          "name": "_currentValue",
          "type": "uint256"
        },
        {
          "name": "_value",
          "type": "uint256"
        }
      ],
      "name": "approve",
      "outputs": [],
      "payable": false,
      "stateMutability": "nonpayable",
      "type": "function"
    },
    {
      "constant": true,
      "inputs": [
        {
          "name": "_nfiType",
          "type": "uint256"
        },
        {
          "name": "_index",
          "type": "uint128"
        }
      ],
      "name": "nonFungibleByIndex",
      "outputs": [
        {
          "name": "",
          "type": "uint256"
        }
      ],
      "payable": false,
      "stateMutability": "view",
      "type": "function"
    },
    {
      "constant": true,
      "inputs": [
        {
          "name": "_id",
          "type": "uint256"
        }
      ],
      "name": "isNonFungibleItem",
      "outputs": [
        {
          "name": "",
          "type": "bool"
        }
      ],
      "payable": false,
      "stateMutability": "pure",
      "type": "function"
    },
    {
      "constant": true,
      "inputs": [
        {
          "name": "_id",
          "type": "uint256"
        }
      ],
      "name": "ownerOf",
      "outputs": [
        {
          "name": "",
          "type": "address"
        }
      ],
      "payable": false,
      "stateMutability": "view",
      "type": "function"
    },
    {
      "constant": false,
      "inputs": [
        {
          "name": "_to",
          "type": "address[]"
        },
        {
          "name": "_ids",
          "type": "uint256[]"
        },
        {
          "name": "_values",
          "type": "uint256[]"
        }
      ],
      "name": "multicastTransfer",
      "outputs": [],
      "payable": false,
      "stateMutability": "nonpayable",
      "type": "function"
    },
    {
      "constant": true,
      "inputs": [
        {
          "name": "_id",
          "type": "uint256"
        }
      ],
      "name": "getNonFungibleBaseType",
      "outputs": [
        {
          "name": "",
          "type": "uint256"
        }
      ],
      "payable": false,
      "stateMutability": "pure",
      "type": "function"
    },
    {
      "constant": true,
      "inputs": [
        {
          "name": "_id",
          "type": "uint256"
        }
      ],
      "name": "isNonFungibleBaseType",
      "outputs": [
        {
          "name": "",
          "type": "bool"
        }
      ],
      "payable": false,
      "stateMutability": "pure",
      "type": "function"
    },
    {
      "constant": true,
      "inputs": [
        {
          "name": "_nfiType",
          "type": "uint256"
        },
        {
          "name": "_owner",
          "type": "address"
        },
        {
          "name": "_index",
          "type": "uint128"
        }
      ],
      "name": "nonFungibleOfOwnerByIndex",
      "outputs": [
        {
          "name": "",
          "type": "uint256"
        }
      ],
      "payable": false,
      "stateMutability": "view",
      "type": "function"
    },
    {
      "constant": true,
      "inputs": [
        {
          "name": "",
          "type": "uint256"
        }
      ],
      "name": "minters",
      "outputs": [
        {
          "name": "",
          "type": "address"
        }
      ],
      "payable": false,
      "stateMutability": "view",
      "type": "function"
    },
    {
      "constant": true,
      "inputs": [
        {
          "name": "_id",
          "type": "uint256"
        }
      ],
      "name": "getNonFungibleIndex",
      "outputs": [
        {
          "name": "",
          "type": "uint256"
        }
      ],
      "payable": false,
      "stateMutability": "pure",
      "type": "function"
    },
    {
      "constant": true,
      "inputs": [
        {
          "name": "_id",
          "type": "uint256"
        }
      ],
      "name": "isFungible",
      "outputs": [
        {
          "name": "",
          "type": "bool"
        }
      ],
      "payable": false,
      "stateMutability": "pure",
      "type": "function"
    },
    {
      "constant": false,
      "inputs": [
        {
          "name": "_to",
          "type": "address"
        },
        {
          "name": "_id",
          "type": "uint256"
        },
        {
          "name": "_value",
          "type": "uint256"
        },
        {
          "name": "_data",
          "type": "bytes"
        }
      ],
      "name": "safeTransfer",
      "outputs": [],
      "payable": false,
      "stateMutability": "nonpayable",
      "type": "function"
    },
    {
      "constant": true,
      "inputs": [
        {
          "name": "_id",
          "type": "uint256"
        }
      ],
      "name": "totalSupply",
      "outputs": [
        {
          "name": "",
          "type": "uint256"
        }
      ],
      "payable": false,
      "stateMutability": "view",
      "type": "function"
    },
    {
      "constant": true,
      "inputs": [
        {
          "name": "",
          "type": "uint256"
        }
      ],
      "name": "items",
      "outputs": [
        {
          "name": "name",
          "type": "string"
        },
        {
          "name": "totalSupply",
          "type": "uint256"
        }
      ],
      "payable": false,
      "stateMutability": "view",
      "type": "function"
    },
    {
      "constant": true,
      "inputs": [
        {
          "name": "",
          "type": "uint256"
        }
      ],
      "name": "symbols",
      "outputs": [
        {
          "name": "",
          "type": "string"
        }
      ],
      "payable": false,
      "stateMutability": "view",
      "type": "function"
    },
    {
      "constant": false,
      "inputs": [
        {
          "name": "_spender",
          "type": "address"
        },
        {
          "name": "_ids",
          "type": "uint256[]"
        },
        {
          "name": "_currentValues",
          "type": "uint256[]"
        },
        {
          "name": "_values",
          "type": "uint256[]"
        }
      ],
      "name": "batchApprove",
      "outputs": [],
      "payable": false,
      "stateMutability": "nonpayable",
      "type": "function"
    },
    {
      "constant": false,
      "inputs": [
        {
          "name": "_from",
          "type": "address"
        },
        {
          "name": "_to",
          "type": "address"
        },
        {
          "name": "_ids",
          "type": "uint256[]"
        },
        {
          "name": "_values",
          "type": "uint256[]"
        }
      ],
      "name": "transferFrom",
      "outputs": [],
      "payable": false,
      "stateMutability": "nonpayable",
      "type": "function"
    },
    {
      "constant": false,
      "inputs": [
        {
          "name": "_to",
          "type": "address[]"
        },
        {
          "name": "_ids",
          "type": "uint256[]"
        },
        {
          "name": "_values",
          "type": "uint256[]"
        },
        {
          "name": "_data",
          "type": "bytes"
        }
      ],
      "name": "safeMulticastTransfer",
      "outputs": [],
      "payable": false,
      "stateMutability": "nonpayable",
      "type": "function"
    },
    {
      "constant": false,
      "inputs": [
        {
          "name": "_to",
          "type": "address"
        },
        {
          "name": "_ids",
          "type": "uint256[]"
        },
        {
          "name": "_values",
          "type": "uint256[]"
        }
      ],
      "name": "batchTransfer",
      "outputs": [],
      "payable": false,
      "stateMutability": "nonpayable",
      "type": "function"
    },
    {
      "constant": true,
      "inputs": [
        {
          "name": "_id",
          "type": "uint256"
        }
      ],
      "name": "isNonFungible",
      "outputs": [
        {
          "name": "",
          "type": "bool"
        }
      ],
      "payable": false,
      "stateMutability": "pure",
      "type": "function"
    },
    {
      "constant": false,
      "inputs": [
        {
          "name": "_from",
          "type": "address"
        },
        {
          "name": "_to",
          "type": "address"
        },
        {
          "name": "_id",
          "type": "uint256"
        },
        {
          "name": "_value",
          "type": "uint256"
        },
        {
          "name": "_data",
          "type": "bytes"
        }
      ],
      "name": "safeTransferFrom",
      "outputs": [],
      "payable": false,
      "stateMutability": "nonpayable",
      "type": "function"
    },
    {
      "constant": false,
      "inputs": [
        {
          "name": "_from",
          "type": "address"
        },
        {
          "name": "_to",
          "type": "address"
        },
        {
          "name": "_id",
          "type": "uint256"
        },
        {
          "name": "_value",
          "type": "uint256"
        }
      ],
      "name": "transferFrom",
      "outputs": [],
      "payable": false,
      "stateMutability": "nonpayable",
      "type": "function"
    },
    {
      "anonymous": false,
      "inputs": [
        {
          "indexed": true,
          "name": "_owner",
          "type": "address"
        },
        {
          "indexed": true,
          "name": "_spender",
          "type": "address"
        },
        {
          "indexed": true,
          "name": "_id",
          "type": "uint256"
        },
        {
          "indexed": false,
          "name": "_oldValue",
          "type": "uint256"
        },
        {
          "indexed": false,
          "name": "_value",
          "type": "uint256"
        }
      ],
      "name": "Approval",
      "type": "event"
    },
    {
      "anonymous": false,
      "inputs": [
        {
          "indexed": false,
          "name": "_spender",
          "type": "address"
        },
        {
          "indexed": true,
          "name": "_from",
          "type": "address"
        },
        {
          "indexed": true,
          "name": "_to",
          "type": "address"
        },
        {
          "indexed": true,
          "name": "_id",
          "type": "uint256"
        },
        {
          "indexed": false,
          "name": "_value",
          "type": "uint256"
        }
      ],
      "name": "Transfer",
      "type": "event"
    },
    {
      "constant": false,
      "inputs": [
        {
          "name": "_name",
          "type": "string"
        },
        {
          "name": "_uri",
          "type": "string"
        },
        {
          "name": "_decimals",
          "type": "uint8"
        },
        {
          "name": "_symbol",
          "type": "string"
        },
        {
          "name": "_isNFI",
          "type": "bool"
        }
      ],
      "name": "create",
      "outputs": [
        {
          "name": "_type",
          "type": "uint256"
        }
      ],
      "payable": false,
      "stateMutability": "nonpayable",
      "type": "function"
    },
    {
      "constant": false,
      "inputs": [
        {
          "name": "_type",
          "type": "uint256"
        },
        {
          "name": "_to",
          "type": "address[]"
        }
      ],
      "name": "mintNonFungible",
      "outputs": [],
      "payable": false,
      "stateMutability": "nonpayable",
      "type": "function"
    },
    {
      "constant": false,
      "inputs": [
        {
          "name": "_type",
          "type": "uint256"
        },
        {
          "name": "_to",
          "type": "address[]"
        },
        {
          "name": "_values",
          "type": "uint256[]"
        }
      ],
      "name": "mintFungible",
      "outputs": [],
      "payable": false,
      "stateMutability": "nonpayable",
      "type": "function"
    }
  ],
  "bytecode": "0x608060405234801561001057600080fd5b506141f9806100206000396000f3006080604052600436106101c1576000357c0100000000000000000000000000000000000000000000000000000000900463ffffffff168062ad800c146101c6578063095bcdb61461026c57806309d6b0a3146102c35780630d550b75146103365780630e89341c146103b757806317fad7fc1461045d5780632eb2c2d6146104f05780633656eec21461059b578063368b2842146105fc5780633f47e662146106875780634e41a1fb146106ce5780634f4df442146107745780635439c6a1146107d55780635e81b958146108325780636352211e1461087757806367fd9da3146108e45780636f969c2d1461094f5780637269a3271461099057806378b27221146109d5578063852ada4b14610a325780638623ec7b14610aaf5780639bb603bb14610b1c5780639cca1c6414610bb4578063adebf6f214610bf5578063ae28b68c14610c3a578063bd85b03914610ca9578063bfb231d214610cea578063ccce413b14610d97578063d1bab4cc14610e3d578063d54e583a14610ec8578063dbd3c37214610f5b578063e39c6d8014610fde578063e44591f014611051578063f242432a14611096578063f941908814611125578063fe99049a1461116a575b600080fd5b3480156101d257600080fd5b506101f1600480360381019080803590602001909291905050506111e1565b6040518080602001828103825283818151815260200191508051906020019080838360005b83811015610231578082015181840152602081019050610216565b50505050905090810190601f16801561025e5780820380516001836020036101000a031916815260200191505b509250505060405180910390f35b34801561027857600080fd5b506102c1600480360381019080803573ffffffffffffffffffffffffffffffffffffffff1690602001909291908035906020019092919080359060200190929190505050611299565b005b3480156102cf57600080fd5b50610334600480360381019080803573ffffffffffffffffffffffffffffffffffffffff1690602001909291908035906020019082018035906020019190919293919293908035906020019082018035906020019190919293919293905050506114b2565b005b34801561034257600080fd5b506103a160048036038101908080359060200190929190803573ffffffffffffffffffffffffffffffffffffffff169060200190929190803573ffffffffffffffffffffffffffffffffffffffff16906020019092919050505061183b565b6040518082815260200191505060405180910390f35b3480156103c357600080fd5b506103e2600480360381019080803590602001909291905050506118d4565b6040518080602001828103825283818151815260200191508051906020019080838360005b83811015610422578082015181840152602081019050610407565b50505050905090810190601f16801561044f5780820380516001836020036101000a031916815260200191505b509250505060405180910390f35b34801561046957600080fd5b506104ee600480360381019080803573ffffffffffffffffffffffffffffffffffffffff169060200190929190803573ffffffffffffffffffffffffffffffffffffffff169060200190929190803590602001908201803590602001919091929391929390803590602001908201803590602001919091929391929390505050611989565b005b3480156104fc57600080fd5b50610599600480360381019080803573ffffffffffffffffffffffffffffffffffffffff169060200190929190803573ffffffffffffffffffffffffffffffffffffffff169060200190929190803590602001908201803590602001919091929391929390803590602001908201803590602001919091929391929390803590602001908201803590602001919091929391929390505050611fbe565b005b3480156105a757600080fd5b506105e660048036038101908080359060200190929190803573ffffffffffffffffffffffffffffffffffffffff16906020019092919050505061202c565b6040518082815260200191505060405180910390f35b34801561060857600080fd5b50610685600480360381019080803573ffffffffffffffffffffffffffffffffffffffff169060200190929190803590602001908201803590602001919091929391929390803590602001908201803590602001919091929391929390803590602001908201803590602001919091929391929390505050612128565b005b34801561069357600080fd5b506106b260048036038101908080359060200190929190505050612196565b604051808260ff1660ff16815260200191505060405180910390f35b3480156106da57600080fd5b506106f9600480360381019080803590602001909291905050506121bf565b6040518080602001828103825283818151815260200191508051906020019080838360005b8381101561073957808201518184015260208101905061071e565b50505050905090810190601f1680156107665780820380516001836020036101000a031916815260200191505b509250505060405180910390f35b34801561078057600080fd5b506107d3600480360381019080803573ffffffffffffffffffffffffffffffffffffffff169060200190929190803590602001909291908035906020019092919080359060200190929190505050612274565b005b3480156107e157600080fd5b5061081c6004803603810190808035906020019092919080356fffffffffffffffffffffffffffffffff169060200190929190505050612420565b6040518082815260200191505060405180910390f35b34801561083e57600080fd5b5061085d6004803603810190808035906020019092919050505061248f565b604051808215151515815260200191505060405180910390f35b34801561088357600080fd5b506108a2600480360381019080803590602001909291905050506124fe565b604051808273ffffffffffffffffffffffffffffffffffffffff1673ffffffffffffffffffffffffffffffffffffffff16815260200191505060405180910390f35b3480156108f057600080fd5b5061094d60048036038101908080359060200190820180359060200191909192939192939080359060200190820180359060200191909192939192939080359060200190820180359060200191909192939192939050505061253b565b005b34801561095b57600080fd5b5061097a600480360381019080803590602001909291905050506127d7565b6040518082815260200191505060405180910390f35b34801561099c57600080fd5b506109bb6004803603810190808035906020019092919050505061281c565b604051808215151515815260200191505060405180910390f35b3480156109e157600080fd5b50610a306004803603810190808035906020019092919080359060200190820180359060200191909192939192939080359060200190820180359060200191909192939192939050505061288a565b005b348015610a3e57600080fd5b50610a9960048036038101908080359060200190929190803573ffffffffffffffffffffffffffffffffffffffff16906020019092919080356fffffffffffffffffffffffffffffffff169060200190929190505050612a23565b6040518082815260200191505060405180910390f35b348015610abb57600080fd5b50610ada60048036038101908080359060200190929190505050612ba2565b604051808273ffffffffffffffffffffffffffffffffffffffff1673ffffffffffffffffffffffffffffffffffffffff16815260200191505060405180910390f35b348015610b2857600080fd5b50610b9e600480360381019080803590602001908201803590602001919091929391929390803590602001908201803590602001919091929391929390803560ff169060200190929190803590602001908201803590602001919091929391929390803515159060200190929190505050612bd5565b6040518082815260200191505060405180910390f35b348015610bc057600080fd5b50610bdf60048036038101908080359060200190929190505050612d10565b6040518082815260200191505060405180910390f35b348015610c0157600080fd5b50610c2060048036038101908080359060200190929190505050612d4e565b604051808215151515815260200191505060405180910390f35b348015610c4657600080fd5b50610ca7600480360381019080803573ffffffffffffffffffffffffffffffffffffffff1690602001909291908035906020019092919080359060200190929190803590602001908201803590602001919091929391929390505050612d7c565b005b348015610cb557600080fd5b50610cd460048036038101908080359060200190929190505050612dea565b6040518082815260200191505060405180910390f35b348015610cf657600080fd5b50610d1560048036038101908080359060200190929190505050612e8a565b6040518080602001838152602001828103825284818151815260200191508051906020019080838360005b83811015610d5b578082015181840152602081019050610d40565b50505050905090810190601f168015610d885780820380516001836020036101000a031916815260200191505b50935050505060405180910390f35b348015610da357600080fd5b50610dc260048036038101908080359060200190929190505050612f46565b6040518080602001828103825283818151815260200191508051906020019080838360005b83811015610e02578082015181840152602081019050610de7565b50505050905090810190601f168015610e2f5780820380516001836020036101000a031916815260200191505b509250505060405180910390f35b348015610e4957600080fd5b50610ec6600480360381019080803573ffffffffffffffffffffffffffffffffffffffff169060200190929190803590602001908201803590602001919091929391929390803590602001908201803590602001919091929391929390803590602001908201803590602001919091929391929390505050612ff6565b005b348015610ed457600080fd5b50610f59600480360381019080803573ffffffffffffffffffffffffffffffffffffffff169060200190929190803573ffffffffffffffffffffffffffffffffffffffff16906020019092919080359060200190820180359060200191909192939192939080359060200190820180359060200191909192939192939050505061321d565b005b348015610f6757600080fd5b50610fdc60048036038101908080359060200190820180359060200191909192939192939080359060200190820180359060200191909192939192939080359060200190820180359060200191909192939192939080359060200190820180359060200191909192939192939050505061370e565b005b348015610fea57600080fd5b5061104f600480360381019080803573ffffffffffffffffffffffffffffffffffffffff16906020019092919080359060200190820180359060200191909192939192939080359060200190820180359060200191909192939192939050505061377c565b005b34801561105d57600080fd5b5061107c600480360381019080803590602001909291905050506139e7565b604051808215151515815260200191505060405180910390f35b3480156110a257600080fd5b50611123600480360381019080803573ffffffffffffffffffffffffffffffffffffffff169060200190929190803573ffffffffffffffffffffffffffffffffffffffff1690602001909291908035906020019092919080359060200190929190803590602001908201803590602001919091929391929390505050613a15565b005b34801561113157600080fd5b5061116860048036038101908080359060200190929190803590602001908201803590602001919091929391929390505050613a83565b005b34801561117657600080fd5b506111df600480360381019080803573ffffffffffffffffffffffffffffffffffffffff169060200190929190803573ffffffffffffffffffffffffffffffffffffffff1690602001909291908035906020019092919080359060200190929190505050613cd6565b005b6060600360008381526020019081526020016000206000018054600181600116156101000203166002900480601f01602080910402602001604051908101604052809291908181526020018280546001816001161561010002031660029004801561128d5780601f106112625761010080835404028352916020019161128d565b820191906000526020600020905b81548152906001019060200180831161127057829003601f168201915b50505050509050919050565b6112ff816003600085815260200190815260200160002060020160003373ffffffffffffffffffffffffffffffffffffffff1673ffffffffffffffffffffffffffffffffffffffff168152602001908152602001600020546140f390919063ffffffff16565b6003600084815260200190815260200160002060020160003373ffffffffffffffffffffffffffffffffffffffff1673ffffffffffffffffffffffffffffffffffffffff168152602001908152602001600020819055506113bc6003600084815260200190815260200160002060020160008573ffffffffffffffffffffffffffffffffffffffff1673ffffffffffffffffffffffffffffffffffffffff168152602001908152602001600020548261410c90919063ffffffff16565b6003600084815260200190815260200160002060020160008573ffffffffffffffffffffffffffffffffffffffff1673ffffffffffffffffffffffffffffffffffffffff16815260200190815260200160002081905550818373ffffffffffffffffffffffffffffffffffffffff163373ffffffffffffffffffffffffffffffffffffffff167f1b3d7edb2e9c0b0e7c525b20aaaef0f5940d2ed71663c7d39266ecafac7288593385604051808373ffffffffffffffffffffffffffffffffffffffff1673ffffffffffffffffffffffffffffffffffffffff1681526020018281526020019250505060405180910390a4505050565b600080600080600091505b878790508210156118305787878381811015156114d657fe5b90506020020135935085858381811015156114ed57fe5b9050602002013592506114ff846139e7565b156115d35760018314151561151357600080fd5b3373ffffffffffffffffffffffffffffffffffffffff166005600086815260200190815260200160002060009054906101000a900473ffffffffffffffffffffffffffffffffffffffff1673ffffffffffffffffffffffffffffffffffffffff1614151561158057600080fd5b886005600086815260200190815260200160002060006101000a81548173ffffffffffffffffffffffffffffffffffffffff021916908373ffffffffffffffffffffffffffffffffffffffff1602179055505b60807fffffffffffffffffffffffffffffffffffffffffffffffffffffffffffffffff6fffffffffffffffffffffffffffffffff169060020a0284169050611677836003600084815260200190815260200160002060020160003373ffffffffffffffffffffffffffffffffffffffff1673ffffffffffffffffffffffffffffffffffffffff168152602001908152602001600020546140f390919063ffffffff16565b6003600083815260200190815260200160002060020160003373ffffffffffffffffffffffffffffffffffffffff1673ffffffffffffffffffffffffffffffffffffffff168152602001908152602001600020819055506117346003600083815260200190815260200160002060020160008b73ffffffffffffffffffffffffffffffffffffffff1673ffffffffffffffffffffffffffffffffffffffff168152602001908152602001600020548461410c90919063ffffffff16565b6003600083815260200190815260200160002060020160008b73ffffffffffffffffffffffffffffffffffffffff1673ffffffffffffffffffffffffffffffffffffffff16815260200190815260200160002081905550838973ffffffffffffffffffffffffffffffffffffffff163373ffffffffffffffffffffffffffffffffffffffff167f1b3d7edb2e9c0b0e7c525b20aaaef0f5940d2ed71663c7d39266ecafac7288593387604051808373ffffffffffffffffffffffffffffffffffffffff1673ffffffffffffffffffffffffffffffffffffffff1681526020018281526020019250505060405180910390a48160010191506114bd565b505050505050505050565b60006002600085815260200190815260200160002060008473ffffffffffffffffffffffffffffffffffffffff1673ffffffffffffffffffffffffffffffffffffffff16815260200190815260200160002060008373ffffffffffffffffffffffffffffffffffffffff1673ffffffffffffffffffffffffffffffffffffffff1681526020019081526020016000205490509392505050565b6060600460008381526020019081526020016000208054600181600116156101000203166002900480601f01602080910402602001604051908101604052809291908181526020018280546001816001161561010002031660029004801561197d5780601f106119525761010080835404028352916020019161197d565b820191906000526020600020905b81548152906001019060200180831161196057829003601f168201915b50505050509050919050565b60008060003373ffffffffffffffffffffffffffffffffffffffff168973ffffffffffffffffffffffffffffffffffffffff161415611c2457600090505b86869050811015611c1f5786868281811015156119e057fe5b90506020020135925084848281811015156119f757fe5b905060200201359150611a66826003600086815260200190815260200160002060020160008c73ffffffffffffffffffffffffffffffffffffffff1673ffffffffffffffffffffffffffffffffffffffff168152602001908152602001600020546140f390919063ffffffff16565b6003600085815260200190815260200160002060020160008b73ffffffffffffffffffffffffffffffffffffffff1673ffffffffffffffffffffffffffffffffffffffff16815260200190815260200160002081905550611b236003600085815260200190815260200160002060020160008a73ffffffffffffffffffffffffffffffffffffffff1673ffffffffffffffffffffffffffffffffffffffff168152602001908152602001600020548361410c90919063ffffffff16565b6003600085815260200190815260200160002060020160008a73ffffffffffffffffffffffffffffffffffffffff1673ffffffffffffffffffffffffffffffffffffffff16815260200190815260200160002081905550828873ffffffffffffffffffffffffffffffffffffffff168a73ffffffffffffffffffffffffffffffffffffffff167f1b3d7edb2e9c0b0e7c525b20aaaef0f5940d2ed71663c7d39266ecafac7288593386604051808373ffffffffffffffffffffffffffffffffffffffff1673ffffffffffffffffffffffffffffffffffffffff1681526020018281526020019250505060405180910390a48060010190506119c7565b611fb3565b600090505b86869050811015611fb2578686828181101515611c4257fe5b9050602002013592508484828181101515611c5957fe5b905060200201359150611d02826002600086815260200190815260200160002060008c73ffffffffffffffffffffffffffffffffffffffff1673ffffffffffffffffffffffffffffffffffffffff16815260200190815260200160002060003373ffffffffffffffffffffffffffffffffffffffff1673ffffffffffffffffffffffffffffffffffffffff168152602001908152602001600020546140f390919063ffffffff16565b6002600085815260200190815260200160002060008b73ffffffffffffffffffffffffffffffffffffffff1673ffffffffffffffffffffffffffffffffffffffff16815260200190815260200160002060003373ffffffffffffffffffffffffffffffffffffffff1673ffffffffffffffffffffffffffffffffffffffff16815260200190815260200160002081905550611df9826003600086815260200190815260200160002060020160008c73ffffffffffffffffffffffffffffffffffffffff1673ffffffffffffffffffffffffffffffffffffffff168152602001908152602001600020546140f390919063ffffffff16565b6003600085815260200190815260200160002060020160008b73ffffffffffffffffffffffffffffffffffffffff1673ffffffffffffffffffffffffffffffffffffffff16815260200190815260200160002081905550611eb66003600085815260200190815260200160002060020160008a73ffffffffffffffffffffffffffffffffffffffff1673ffffffffffffffffffffffffffffffffffffffff168152602001908152602001600020548361410c90919063ffffffff16565b6003600085815260200190815260200160002060020160008a73ffffffffffffffffffffffffffffffffffffffff1673ffffffffffffffffffffffffffffffffffffffff16815260200190815260200160002081905550828873ffffffffffffffffffffffffffffffffffffffff168a73ffffffffffffffffffffffffffffffffffffffff167f1b3d7edb2e9c0b0e7c525b20aaaef0f5940d2ed71663c7d39266ecafac7288593386604051808373ffffffffffffffffffffffffffffffffffffffff1673ffffffffffffffffffffffffffffffffffffffff1681526020018281526020019250505060405180910390a4806001019050611c29565b5b505050505050505050565b6040517f08c379a00000000000000000000000000000000000000000000000000000000081526004018080602001828103825260038152602001807f544244000000000000000000000000000000000000000000000000000000000081525060200191505060405180910390fd5b6000806120388461248f565b1561208c578273ffffffffffffffffffffffffffffffffffffffff1661205d856124fe565b73ffffffffffffffffffffffffffffffffffffffff161461207f576000612082565b60015b60ff169150612121565b60807fffffffffffffffffffffffffffffffffffffffffffffffffffffffffffffffff6fffffffffffffffffffffffffffffffff169060020a02841690506003600082815260200190815260200160002060020160008473ffffffffffffffffffffffffffffffffffffffff1673ffffffffffffffffffffffffffffffffffffffff1681526020019081526020016000205491505b5092915050565b6040517f08c379a00000000000000000000000000000000000000000000000000000000081526004018080602001828103825260038152602001807f544244000000000000000000000000000000000000000000000000000000000081525060200191505060405180910390fd5b600080600083815260200190815260200160002060009054906101000a900460ff169050919050565b6060600160008381526020019081526020016000208054600181600116156101000203166002900480601f0160208091040260200160405190810160405280929190818152602001828054600181600116156101000203166002900480156122685780601f1061223d57610100808354040283529160200191612268565b820191906000526020600020905b81548152906001019060200180831161224b57829003601f168201915b50505050509050919050565b600081148061230f5750816002600085815260200190815260200160002060003373ffffffffffffffffffffffffffffffffffffffff1673ffffffffffffffffffffffffffffffffffffffff16815260200190815260200160002060008673ffffffffffffffffffffffffffffffffffffffff1673ffffffffffffffffffffffffffffffffffffffff16815260200190815260200160002054145b151561231a57600080fd5b806002600085815260200190815260200160002060003373ffffffffffffffffffffffffffffffffffffffff1673ffffffffffffffffffffffffffffffffffffffff16815260200190815260200160002060008673ffffffffffffffffffffffffffffffffffffffff1673ffffffffffffffffffffffffffffffffffffffff16815260200190815260200160002081905550828473ffffffffffffffffffffffffffffffffffffffff163373ffffffffffffffffffffffffffffffffffffffff167f3a9c85c6b31f7a9d7fe1478f53e1be42e85db97ca30d1789cfef9196dbc472c98585604051808381526020018281526020019250505060405180910390a450505050565b60008061242c8461281c565b151561243757600080fd5b6003600085815260200190815260200160002060010154836fffffffffffffffffffffffffffffffff161115151561246e57600080fd5b826fffffffffffffffffffffffffffffffff16841790508091505092915050565b60007f80000000000000000000000000000000000000000000000000000000000000008083161480156124f7575060007fffffffffffffffffffffffffffffffffffffffffffffffffffffffffffffffff6fffffffffffffffffffffffffffffffff16831614155b9050919050565b60006005600083815260200190815260200160002060009054906101000a900473ffffffffffffffffffffffffffffffffffffffff169050919050565b600080600080600093505b898990508410156127cb57878785818110151561255f57fe5b905060200201359250858585818110151561257657fe5b905060200201359150898985818110151561258d57fe5b9050602002013573ffffffffffffffffffffffffffffffffffffffff169050612612826003600086815260200190815260200160002060020160003373ffffffffffffffffffffffffffffffffffffffff1673ffffffffffffffffffffffffffffffffffffffff168152602001908152602001600020546140f390919063ffffffff16565b6003600085815260200190815260200160002060020160003373ffffffffffffffffffffffffffffffffffffffff1673ffffffffffffffffffffffffffffffffffffffff168152602001908152602001600020819055506126cf6003600085815260200190815260200160002060020160008373ffffffffffffffffffffffffffffffffffffffff1673ffffffffffffffffffffffffffffffffffffffff168152602001908152602001600020548361410c90919063ffffffff16565b6003600085815260200190815260200160002060020160008373ffffffffffffffffffffffffffffffffffffffff1673ffffffffffffffffffffffffffffffffffffffff16815260200190815260200160002081905550828173ffffffffffffffffffffffffffffffffffffffff163373ffffffffffffffffffffffffffffffffffffffff167f1b3d7edb2e9c0b0e7c525b20aaaef0f5940d2ed71663c7d39266ecafac7288593386604051808373ffffffffffffffffffffffffffffffffffffffff1673ffffffffffffffffffffffffffffffffffffffff1681526020018281526020019250505060405180910390a4836001019350612546565b50505050505050505050565b600060807fffffffffffffffffffffffffffffffffffffffffffffffffffffffffffffffff6fffffffffffffffffffffffffffffffff169060020a0282169050919050565b60007f8000000000000000000000000000000000000000000000000000000000000000808316148015612883575060007fffffffffffffffffffffffffffffffffffffffffffffffffffffffffffffffff6fffffffffffffffffffffffffffffffff168316145b9050919050565b60008060008061289989612d4e565b15156128a457600080fd5b600092505b878790508310156129d55785858481811015156128c257fe5b90506020020135915087878481811015156128d957fe5b9050602002013573ffffffffffffffffffffffffffffffffffffffff16905061290b828561410c90919063ffffffff16565b935061297382600360008c815260200190815260200160002060020160008473ffffffffffffffffffffffffffffffffffffffff1673ffffffffffffffffffffffffffffffffffffffff1681526020019081526020016000205461410c90919063ffffffff16565b600360008b815260200190815260200160002060020160008373ffffffffffffffffffffffffffffffffffffffff1673ffffffffffffffffffffffffffffffffffffffff168152602001908152602001600020819055508260010192506128a9565b6129fe84600360008c81526020019081526020016000206001015461410c90919063ffffffff16565b600360008b815260200190815260200160002060010181905550505050505050505050565b600080600080600080612a358961281c565b1515612a4057600080fd5b600360008a815260200190815260200160002060020160008973ffffffffffffffffffffffffffffffffffffffff1673ffffffffffffffffffffffffffffffffffffffff16815260200190815260200160002054876fffffffffffffffffffffffffffffffff16101515612ab357600080fd5b866fffffffffffffffffffffffffffffffff169450600360008a8152602001908152602001600020600101549350600192505b8383111515612b915782891791506005600083815260200190815260200160002060009054906101000a900473ffffffffffffffffffffffffffffffffffffffff1690508773ffffffffffffffffffffffffffffffffffffffff168173ffffffffffffffffffffffffffffffffffffffff161415612b86576000851415612b6f57819550612b96565b612b836001866140f390919063ffffffff16565b94505b826001019250612ae6565b600095505b50505050509392505050565b60066020528060005260406000206000915054906101000a900473ffffffffffffffffffffffffffffffffffffffff1681565b600060806007600081546001019190508190559060020a0290508115612c1b577f8000000000000000000000000000000000000000000000000000000000000000811790505b336006600083815260200190815260200160002060006101000a81548173ffffffffffffffffffffffffffffffffffffffff021916908373ffffffffffffffffffffffffffffffffffffffff1602179055508888600360008481526020019081526020016000206000019190612c92929190614128565b508460008083815260200190815260200160002060006101000a81548160ff021916908360ff1602179055508383600160008481526020019081526020016000209190612ce0929190614128565b508686600460008481526020019081526020016000209190612d03929190614128565b5098975050505050505050565b60007fffffffffffffffffffffffffffffffffffffffffffffffffffffffffffffffff6fffffffffffffffffffffffffffffffff1682169050919050565b6000807f80000000000000000000000000000000000000000000000000000000000000008316149050919050565b6040517f08c379a00000000000000000000000000000000000000000000000000000000081526004018080602001828103825260038152602001807f544244000000000000000000000000000000000000000000000000000000000081525060200191505060405180910390fd5b6000612df58261248f565b15612e6b576003600060807fffffffffffffffffffffffffffffffffffffffffffffffffffffffffffffffff6fffffffffffffffffffffffffffffffff169060020a028416815260200190815260200160002060010154612e5583612d10565b11151515612e6257600080fd5b60019050612e85565b600360008381526020019081526020016000206001015490505b919050565b6003602052806000526040600020600091509050806000018054600181600116156101000203166002900480601f016020809104026020016040519081016040528092919081815260200182805460018160011615610100020316600290048015612f365780601f10612f0b57610100808354040283529160200191612f36565b820191906000526020600020905b815481529060010190602001808311612f1957829003601f168201915b5050505050908060010154905082565b60016020528060005260406000206000915090508054600181600116156101000203166002900480601f016020809104026020016040519081016040528092919081815260200182805460018160011615610100020316600290048015612fee5780601f10612fc357610100808354040283529160200191612fee565b820191906000526020600020905b815481529060010190602001808311612fd157829003601f168201915b505050505081565b60008060008090505b8888905081101561321157888882818110151561301857fe5b905060200201359250848482818110151561302f57fe5b90506020020135915060008214806130e75750868682818110151561305057fe5b905060200201356002600085815260200190815260200160002060003373ffffffffffffffffffffffffffffffffffffffff1673ffffffffffffffffffffffffffffffffffffffff16815260200190815260200160002060008c73ffffffffffffffffffffffffffffffffffffffff1673ffffffffffffffffffffffffffffffffffffffff16815260200190815260200160002054145b15156130f257600080fd5b816002600085815260200190815260200160002060003373ffffffffffffffffffffffffffffffffffffffff1673ffffffffffffffffffffffffffffffffffffffff16815260200190815260200160002060008c73ffffffffffffffffffffffffffffffffffffffff1673ffffffffffffffffffffffffffffffffffffffff16815260200190815260200160002081905550828a73ffffffffffffffffffffffffffffffffffffffff163373ffffffffffffffffffffffffffffffffffffffff167f3a9c85c6b31f7a9d7fe1478f53e1be42e85db97ca30d1789cfef9196dbc472c98a8a8681811015156131e257fe5b9050602002013586604051808381526020018281526020019250505060405180910390a4806001019050612fff565b50505050505050505050565b600080600080600091505b8787905082101561370257878783818110151561324157fe5b905060200201359350858583818110151561325857fe5b90506020020135925061326a846139e7565b1561333e5760018314151561327e57600080fd5b8973ffffffffffffffffffffffffffffffffffffffff166005600086815260200190815260200160002060009054906101000a900473ffffffffffffffffffffffffffffffffffffffff1673ffffffffffffffffffffffffffffffffffffffff161415156132eb57600080fd5b886005600086815260200190815260200160002060006101000a81548173ffffffffffffffffffffffffffffffffffffffff021916908373ffffffffffffffffffffffffffffffffffffffff1602179055505b3373ffffffffffffffffffffffffffffffffffffffff168a73ffffffffffffffffffffffffffffffffffffffff161415156134a557613413836002600087815260200190815260200160002060008d73ffffffffffffffffffffffffffffffffffffffff1673ffffffffffffffffffffffffffffffffffffffff16815260200190815260200160002060003373ffffffffffffffffffffffffffffffffffffffff1673ffffffffffffffffffffffffffffffffffffffff168152602001908152602001600020546140f390919063ffffffff16565b6002600086815260200190815260200160002060008c73ffffffffffffffffffffffffffffffffffffffff1673ffffffffffffffffffffffffffffffffffffffff16815260200190815260200160002060003373ffffffffffffffffffffffffffffffffffffffff1673ffffffffffffffffffffffffffffffffffffffff168152602001908152602001600020819055505b60807fffffffffffffffffffffffffffffffffffffffffffffffffffffffffffffffff6fffffffffffffffffffffffffffffffff169060020a0284169050613549836003600084815260200190815260200160002060020160008d73ffffffffffffffffffffffffffffffffffffffff1673ffffffffffffffffffffffffffffffffffffffff168152602001908152602001600020546140f390919063ffffffff16565b6003600083815260200190815260200160002060020160008c73ffffffffffffffffffffffffffffffffffffffff1673ffffffffffffffffffffffffffffffffffffffff168152602001908152602001600020819055506136066003600083815260200190815260200160002060020160008b73ffffffffffffffffffffffffffffffffffffffff1673ffffffffffffffffffffffffffffffffffffffff168152602001908152602001600020548461410c90919063ffffffff16565b6003600083815260200190815260200160002060020160008b73ffffffffffffffffffffffffffffffffffffffff1673ffffffffffffffffffffffffffffffffffffffff16815260200190815260200160002081905550838973ffffffffffffffffffffffffffffffffffffffff168b73ffffffffffffffffffffffffffffffffffffffff167f1b3d7edb2e9c0b0e7c525b20aaaef0f5940d2ed71663c7d39266ecafac7288593387604051808373ffffffffffffffffffffffffffffffffffffffff1673ffffffffffffffffffffffffffffffffffffffff1681526020018281526020019250505060405180910390a4816001019150613228565b50505050505050505050565b6040517f08c379a00000000000000000000000000000000000000000000000000000000081526004018080602001828103825260038152602001807f544244000000000000000000000000000000000000000000000000000000000081525060200191505060405180910390fd5b60008060008090505b868690508110156139dd57868682818110151561379e57fe5b90506020020135925084848281811015156137b557fe5b905060200201359150613824826003600086815260200190815260200160002060020160003373ffffffffffffffffffffffffffffffffffffffff1673ffffffffffffffffffffffffffffffffffffffff168152602001908152602001600020546140f390919063ffffffff16565b6003600085815260200190815260200160002060020160003373ffffffffffffffffffffffffffffffffffffffff1673ffffffffffffffffffffffffffffffffffffffff168152602001908152602001600020819055506138e16003600085815260200190815260200160002060020160008a73ffffffffffffffffffffffffffffffffffffffff1673ffffffffffffffffffffffffffffffffffffffff168152602001908152602001600020548361410c90919063ffffffff16565b6003600085815260200190815260200160002060020160008a73ffffffffffffffffffffffffffffffffffffffff1673ffffffffffffffffffffffffffffffffffffffff16815260200190815260200160002081905550828873ffffffffffffffffffffffffffffffffffffffff163373ffffffffffffffffffffffffffffffffffffffff167f1b3d7edb2e9c0b0e7c525b20aaaef0f5940d2ed71663c7d39266ecafac7288593386604051808373ffffffffffffffffffffffffffffffffffffffff1673ffffffffffffffffffffffffffffffffffffffff1681526020018281526020019250505060405180910390a4806001019050613785565b5050505050505050565b60007f8000000000000000000000000000000000000000000000000000000000000000808316149050919050565b6040517f08c379a00000000000000000000000000000000000000000000000000000000081526004018080602001828103825260038152602001807f544244000000000000000000000000000000000000000000000000000000000081525060200191505060405180910390fd5b600080600080863373ffffffffffffffffffffffffffffffffffffffff166006600083815260200190815260200160002060009054906101000a900473ffffffffffffffffffffffffffffffffffffffff1673ffffffffffffffffffffffffffffffffffffffff16141515613af757600080fd5b613b00886139e7565b1515613b0b57600080fd5b6001600360008a815260200190815260200160002060010154019450600093505b86869050841015613c86578686858181101515613b4557fe5b9050602002013573ffffffffffffffffffffffffffffffffffffffff16925083850188179150826005600084815260200190815260200160002060006101000a81548173ffffffffffffffffffffffffffffffffffffffff021916908373ffffffffffffffffffffffffffffffffffffffff160217905550613c246001600360008b815260200190815260200160002060020160008673ffffffffffffffffffffffffffffffffffffffff1673ffffffffffffffffffffffffffffffffffffffff1681526020019081526020016000205461410c90919063ffffffff16565b600360008a815260200190815260200160002060020160008573ffffffffffffffffffffffffffffffffffffffff1673ffffffffffffffffffffffffffffffffffffffff16815260200190815260200160002081905550836001019350613b2c565b613cb287879050600360008b81526020019081526020016000206001015461410c90919063ffffffff16565b600360008a8152602001908152602001600020600101819055505050505050505050565b3373ffffffffffffffffffffffffffffffffffffffff168473ffffffffffffffffffffffffffffffffffffffff16141515613ed957806002600084815260200190815260200160002060008673ffffffffffffffffffffffffffffffffffffffff1673ffffffffffffffffffffffffffffffffffffffff16815260200190815260200160002060003373ffffffffffffffffffffffffffffffffffffffff1673ffffffffffffffffffffffffffffffffffffffff1681526020019081526020016000205410151515613da757600080fd5b613e47816002600085815260200190815260200160002060008773ffffffffffffffffffffffffffffffffffffffff1673ffffffffffffffffffffffffffffffffffffffff16815260200190815260200160002060003373ffffffffffffffffffffffffffffffffffffffff1673ffffffffffffffffffffffffffffffffffffffff168152602001908152602001600020546140f390919063ffffffff16565b6002600084815260200190815260200160002060008673ffffffffffffffffffffffffffffffffffffffff1673ffffffffffffffffffffffffffffffffffffffff16815260200190815260200160002060003373ffffffffffffffffffffffffffffffffffffffff1673ffffffffffffffffffffffffffffffffffffffff168152602001908152602001600020819055505b613f3f816003600085815260200190815260200160002060020160008773ffffffffffffffffffffffffffffffffffffffff1673ffffffffffffffffffffffffffffffffffffffff168152602001908152602001600020546140f390919063ffffffff16565b6003600084815260200190815260200160002060020160008673ffffffffffffffffffffffffffffffffffffffff1673ffffffffffffffffffffffffffffffffffffffff16815260200190815260200160002081905550613ffc6003600084815260200190815260200160002060020160008573ffffffffffffffffffffffffffffffffffffffff1673ffffffffffffffffffffffffffffffffffffffff168152602001908152602001600020548261410c90919063ffffffff16565b6003600084815260200190815260200160002060020160008573ffffffffffffffffffffffffffffffffffffffff1673ffffffffffffffffffffffffffffffffffffffff16815260200190815260200160002081905550818373ffffffffffffffffffffffffffffffffffffffff168573ffffffffffffffffffffffffffffffffffffffff167f1b3d7edb2e9c0b0e7c525b20aaaef0f5940d2ed71663c7d39266ecafac7288593385604051808373ffffffffffffffffffffffffffffffffffffffff1673ffffffffffffffffffffffffffffffffffffffff1681526020018281526020019250505060405180910390a450505050565b600082821115151561410157fe5b818303905092915050565b6000818301905082811015151561411f57fe5b80905092915050565b828054600181600116156101000203166002900490600052602060002090601f016020900481019282601f1061416957803560ff1916838001178555614197565b82800160010185558215614197579182015b8281111561419657823582559160200191906001019061417b565b5b5090506141a491906141a8565b5090565b6141ca91905b808211156141c65760008160009055506001016141ae565b5090565b905600a165627a7a72305820fc923e58a8dbe16ae15454f387bad932a2750b2bb93bf9e3d199a45959f9b32f0029",
  "source": "pragma solidity ^0.4.24;\n\nimport \"./ERC1155NonFungible.sol\";\n\n/**\n    @dev Mintable form of ERC1155\n    Shows how easy it is to mint new items\n*/\ncontract ERC1155NonFungibleMintable is ERC1155NonFungible {\n\n    mapping (uint256 => address) public minters;\n    uint256 nonce;\n\n    modifier minterOnly(uint256 _id) {\n        require(minters[_id] == msg.sender);\n        _;\n    }\n\n    // This function only creates the type.\n    function create(\n        string _name,\n        string _uri,\n        uint8 _decimals,\n        string _symbol,\n        bool _isNFI)\n    external returns(uint256 _type) {\n\n        // Store the type in the upper 128 bits\n        _type = (++nonce << 128);\n\n        // Set a flag if this is an NFI.\n        if (_isNFI)\n          _type = _type | TYPE_NF_BIT;\n\n        // This will allow special access to minters.\n        minters[_type] = msg.sender;\n\n        // Setup the basic info.\n        items[_type].name = _name;\n        decimals[_type] = _decimals;\n        symbols[_type] = _symbol;\n        metadataURIs[_type] = _uri;\n    }\n\n    function mintNonFungible(uint256 _type, address[] _to) external minterOnly(_type) {\n\n        require(isNonFungible(_type));\n\n        // Index are 1-based.\n        uint256 _startIndex = items[_type].totalSupply + 1;\n\n        for (uint256 i = 0; i < _to.length; ++i) {\n\n            address _dst = _to[i];\n            uint256 _nfi = _type | (_startIndex + i);\n\n            nfiOwners[_nfi] = _dst;\n            items[_type].balances[_dst] = items[_type].balances[_dst].add(1);\n        }\n\n        items[_type].totalSupply = items[_type].totalSupply.add(_to.length);\n    }\n\n    function mintFungible(uint256 _type, address[] _to, uint256[] _values)\n    external  {\n\n        require(isFungible(_type));\n\n        uint256 totalValue;\n        for (uint256 i = 0; i < _to.length; ++i) {\n\n            uint256 _value = _values[i];\n            address _dst = _to[i];\n\n            totalValue = totalValue.add(_value);\n\n            items[_type].balances[_dst] = items[_type].balances[_dst].add(_value);\n        }\n\n        items[_type].totalSupply = items[_type].totalSupply.add(totalValue);\n    }\n}\n",
  "sourcePath": "/Users/j.degooijer/Documents/erc1155x/contracts/ERC1155NonFungibleMintable.sol",
  "compiler": {
    "name": "solc",
    "version": "0.4.24+commit.e67f0147.Emscripten.clang"
  },
  "schemaVersion": "2.0.0",
  "updatedAt": "2018-07-30T08:52:08.788Z"
}